{
  "_format": "hh-sol-artifact-1",
  "contractName": "DomainRegistry",
  "sourceName": "contracts/DomainRegistry.sol",
  "abi": [
    {
      "inputs": [],
      "stateMutability": "nonpayable",
      "type": "constructor"
    },
    {
      "anonymous": false,
      "inputs": [
        {
          "indexed": true,
          "internalType": "address",
          "name": "oldAdmin",
          "type": "address"
        },
        {
          "indexed": true,
          "internalType": "address",
          "name": "newAdmin",
          "type": "address"
        }
      ],
      "name": "AdminChanged",
      "type": "event"
    },
    {
      "inputs": [
        {
          "internalType": "uint256",
          "name": "",
          "type": "uint256"
        }
      ],
      "name": "DomainName",
      "outputs": [
        {
          "internalType": "string",
          "name": "",
          "type": "string"
        }
      ],
      "stateMutability": "view",
      "type": "function"
    },
    {
      "inputs": [
        {
          "internalType": "uint256",
          "name": "",
          "type": "uint256"
        }
      ],
      "name": "accountAddresses",
      "outputs": [
        {
          "internalType": "address",
          "name": "",
          "type": "address"
        }
      ],
      "stateMutability": "view",
      "type": "function"
    },
    {
      "inputs": [
        {
          "internalType": "address",
          "name": "",
          "type": "address"
        }
      ],
      "name": "accounts",
      "outputs": [
        {
          "internalType": "string",
          "name": "username",
          "type": "string"
        },
        {
          "internalType": "string",
          "name": "currency",
          "type": "string"
        },
        {
          "internalType": "uint256",
          "name": "registrationTime",
          "type": "uint256"
        },
        {
          "internalType": "bool",
          "name": "isRegistered",
          "type": "bool"
        }
      ],
      "stateMutability": "view",
      "type": "function"
    },
    {
      "inputs": [
        {
          "internalType": "string",
          "name": "_domainName",
          "type": "string"
        }
      ],
      "name": "addFavoriteDomain",
      "outputs": [],
      "stateMutability": "nonpayable",
      "type": "function"
    },
    {
      "inputs": [],
      "name": "admin",
      "outputs": [
        {
          "internalType": "address",
          "name": "",
          "type": "address"
        }
      ],
      "stateMutability": "view",
      "type": "function"
    },
    {
      "inputs": [
        {
          "internalType": "string",
          "name": "",
          "type": "string"
        },
        {
          "internalType": "uint256",
          "name": "",
          "type": "uint256"
        }
      ],
      "name": "auctionBids",
      "outputs": [
        {
          "internalType": "address",
          "name": "bidder",
          "type": "address"
        },
        {
          "internalType": "uint256",
          "name": "amount",
          "type": "uint256"
        },
        {
          "internalType": "uint256",
          "name": "timestamp",
          "type": "uint256"
        }
      ],
      "stateMutability": "view",
      "type": "function"
    },
    {
      "inputs": [
        {
          "internalType": "string",
          "name": "",
          "type": "string"
        }
      ],
      "name": "auctions",
      "outputs": [
        {
          "internalType": "string",
          "name": "domainName",
          "type": "string"
        },
        {
          "internalType": "address payable",
          "name": "initiator",
          "type": "address"
        },
        {
          "internalType": "address payable",
          "name": "highestBidder",
          "type": "address"
        },
        {
          "internalType": "uint256",
          "name": "startTime",
          "type": "uint256"
        },
        {
          "internalType": "uint256",
          "name": "endTime",
          "type": "uint256"
        },
        {
          "internalType": "uint256",
          "name": "startPrice",
          "type": "uint256"
        },
        {
          "internalType": "uint256",
          "name": "highestBid",
          "type": "uint256"
        },
        {
          "internalType": "bool",
          "name": "isEnd",
          "type": "bool"
        },
        {
          "internalType": "uint256",
          "name": "bidamount",
          "type": "uint256"
        }
      ],
      "stateMutability": "view",
      "type": "function"
    },
    {
      "inputs": [
        {
          "internalType": "string",
          "name": "_domainName",
          "type": "string"
        },
        {
          "internalType": "uint256",
          "name": "_price",
          "type": "uint256"
        }
      ],
      "name": "bid",
      "outputs": [],
      "stateMutability": "payable",
      "type": "function"
    },
    {
      "inputs": [
        {
          "internalType": "address",
          "name": "newAdmin",
          "type": "address"
        }
      ],
      "name": "changeAdmin",
      "outputs": [],
      "stateMutability": "nonpayable",
      "type": "function"
    },
    {
      "inputs": [
        {
          "internalType": "string",
          "name": "",
          "type": "string"
        }
      ],
      "name": "domains",
      "outputs": [
        {
          "internalType": "string",
          "name": "name",
          "type": "string"
        },
        {
          "internalType": "address",
          "name": "owner",
          "type": "address"
        },
        {
          "internalType": "string",
          "name": "ip",
          "type": "string"
        },
        {
          "internalType": "string",
          "name": "content",
          "type": "string"
        },
        {
          "internalType": "uint256",
          "name": "price",
          "type": "uint256"
        },
        {
          "internalType": "uint256",
          "name": "amount",
          "type": "uint256"
        },
        {
          "internalType": "uint256",
          "name": "favoriteCount",
          "type": "uint256"
        }
      ],
      "stateMutability": "view",
      "type": "function"
    },
    {
      "inputs": [
        {
          "internalType": "string",
          "name": "_domainName",
          "type": "string"
        },
        {
          "internalType": "string",
          "name": "_ip",
          "type": "string"
        },
        {
          "internalType": "string",
          "name": "_content",
          "type": "string"
        }
      ],
      "name": "endAuction",
      "outputs": [],
      "stateMutability": "payable",
      "type": "function"
    },
    {
      "inputs": [],
      "name": "getAccountInfo",
      "outputs": [
        {
          "internalType": "string",
          "name": "",
          "type": "string"
        },
        {
          "internalType": "string",
          "name": "",
          "type": "string"
        },
        {
          "internalType": "uint256",
          "name": "",
          "type": "uint256"
        },
        {
          "internalType": "string[]",
          "name": "",
          "type": "string[]"
        },
        {
          "internalType": "string[]",
          "name": "",
          "type": "string[]"
        },
        {
          "internalType": "string[]",
          "name": "",
          "type": "string[]"
        }
      ],
      "stateMutability": "view",
      "type": "function"
    },
    {
      "inputs": [],
      "name": "getAllAccounts",
      "outputs": [
        {
          "components": [
            {
              "internalType": "string",
              "name": "username",
              "type": "string"
            },
            {
              "internalType": "string",
              "name": "currency",
              "type": "string"
            },
            {
              "internalType": "uint256",
              "name": "registrationTime",
              "type": "uint256"
            },
            {
              "internalType": "string[]",
              "name": "registeredDomains",
              "type": "string[]"
            },
            {
              "internalType": "string[]",
              "name": "favoriteDomains",
              "type": "string[]"
            },
            {
              "internalType": "string[]",
              "name": "participatedAuctions",
              "type": "string[]"
            },
            {
              "internalType": "bool",
              "name": "isRegistered",
              "type": "bool"
            },
            {
              "components": [
                {
                  "internalType": "string",
                  "name": "domainName",
                  "type": "string"
                },
                {
                  "internalType": "address",
                  "name": "requester",
                  "type": "address"
                },
                {
                  "internalType": "uint256",
                  "name": "offeredPrice",
                  "type": "uint256"
                },
                {
                  "internalType": "bool",
                  "name": "isAccepted",
                  "type": "bool"
                }
              ],
              "internalType": "struct DomainRegistry.TransferRequest[]",
              "name": "transferRequests",
              "type": "tuple[]"
            }
          ],
          "internalType": "struct DomainRegistry.Account[]",
          "name": "",
          "type": "tuple[]"
        }
      ],
      "stateMutability": "view",
      "type": "function"
    },
    {
      "inputs": [
        {
          "internalType": "string",
          "name": "_domainName",
          "type": "string"
        }
      ],
      "name": "getAuctionBids",
      "outputs": [
        {
          "components": [
            {
              "internalType": "address",
              "name": "bidder",
              "type": "address"
            },
            {
              "internalType": "uint256",
              "name": "amount",
              "type": "uint256"
            },
            {
              "internalType": "uint256",
              "name": "timestamp",
              "type": "uint256"
            }
          ],
          "internalType": "struct DomainRegistry.Bid[]",
          "name": "",
          "type": "tuple[]"
        }
      ],
      "stateMutability": "view",
      "type": "function"
    },
    {
      "inputs": [
        {
          "internalType": "string",
          "name": "_domainName",
          "type": "string"
        }
      ],
      "name": "getAuctionName",
      "outputs": [
        {
          "internalType": "string",
          "name": "",
          "type": "string"
        }
      ],
      "stateMutability": "view",
      "type": "function"
    },
    {
      "inputs": [
        {
          "internalType": "string",
          "name": "_name",
          "type": "string"
        }
      ],
      "name": "getDomain",
      "outputs": [
        {
          "internalType": "string",
          "name": "",
          "type": "string"
        },
        {
          "internalType": "address",
          "name": "",
          "type": "address"
        },
        {
          "internalType": "string",
          "name": "",
          "type": "string"
        },
        {
          "internalType": "string",
          "name": "",
          "type": "string"
        },
        {
          "internalType": "uint256",
          "name": "",
          "type": "uint256"
        },
        {
          "internalType": "uint256",
          "name": "",
          "type": "uint256"
        },
        {
          "internalType": "uint256",
          "name": "",
          "type": "uint256"
        }
      ],
      "stateMutability": "view",
      "type": "function"
    },
    {
      "inputs": [],
      "name": "getDomainName",
      "outputs": [
        {
          "internalType": "string[]",
          "name": "",
          "type": "string[]"
        }
      ],
      "stateMutability": "view",
      "type": "function"
    },
    {
      "inputs": [],
      "name": "getMyTransferRequests",
      "outputs": [
        {
          "components": [
            {
              "internalType": "string",
              "name": "domainName",
              "type": "string"
            },
            {
              "internalType": "address",
              "name": "requester",
              "type": "address"
            },
            {
              "internalType": "uint256",
              "name": "offeredPrice",
              "type": "uint256"
            },
            {
              "internalType": "bool",
              "name": "isAccepted",
              "type": "bool"
            }
          ],
          "internalType": "struct DomainRegistry.TransferRequest[]",
          "name": "",
          "type": "tuple[]"
        }
      ],
      "stateMutability": "view",
      "type": "function"
    },
    {
      "inputs": [
        {
          "internalType": "uint256",
          "name": "_i",
          "type": "uint256"
        }
      ],
      "name": "getString",
      "outputs": [
        {
          "internalType": "string",
          "name": "",
          "type": "string"
        }
      ],
      "stateMutability": "pure",
      "type": "function"
    },
    {
      "inputs": [
        {
          "internalType": "string",
          "name": "",
          "type": "string"
        }
      ],
      "name": "minBidPrice",
      "outputs": [
        {
          "internalType": "uint256",
          "name": "",
          "type": "uint256"
        }
      ],
      "stateMutability": "view",
      "type": "function"
    },
    {
      "inputs": [
        {
          "internalType": "string",
          "name": "_username",
          "type": "string"
        },
        {
          "internalType": "string",
          "name": "_currency",
          "type": "string"
        }
      ],
      "name": "registerAccount",
      "outputs": [],
      "stateMutability": "nonpayable",
      "type": "function"
    },
    {
      "inputs": [
        {
          "internalType": "string",
          "name": "_name",
          "type": "string"
        },
        {
          "internalType": "uint256",
          "name": "_duration",
          "type": "uint256"
        },
        {
          "internalType": "uint256",
          "name": "_startPrice",
          "type": "uint256"
        }
      ],
      "name": "registerDomain",
      "outputs": [],
      "stateMutability": "payable",
      "type": "function"
    },
    {
      "inputs": [],
      "name": "registrationPrice",
      "outputs": [
        {
          "internalType": "uint256",
          "name": "",
          "type": "uint256"
        }
      ],
      "stateMutability": "view",
      "type": "function"
    },
    {
      "inputs": [
        {
          "internalType": "string",
          "name": "_domainName",
          "type": "string"
        },
        {
          "internalType": "uint256",
          "name": "_offeredPrice",
          "type": "uint256"
        }
      ],
      "name": "requestDomainTransfer",
      "outputs": [],
      "stateMutability": "payable",
      "type": "function"
    },
    {
      "inputs": [
        {
          "internalType": "uint256",
          "name": "_requestIndex",
          "type": "uint256"
        },
        {
          "internalType": "bool",
          "name": "_accept",
          "type": "bool"
        }
      ],
      "name": "respondToTransferRequest",
      "outputs": [],
      "stateMutability": "nonpayable",
      "type": "function"
    },
    {
      "inputs": [
        {
          "internalType": "string",
          "name": "_name",
          "type": "string"
        },
        {
          "internalType": "string",
          "name": "_content",
          "type": "string"
        },
        {
          "internalType": "string",
          "name": "_ip",
          "type": "string"
        }
      ],
      "name": "setDomainContent",
      "outputs": [],
      "stateMutability": "nonpayable",
      "type": "function"
    },
    {
      "inputs": [
        {
          "internalType": "string",
          "name": "_domainName",
          "type": "string"
        },
        {
          "internalType": "uint256",
          "name": "_price",
          "type": "uint256"
        }
      ],
      "name": "setMinBidPrice",
      "outputs": [],
      "stateMutability": "nonpayable",
      "type": "function"
    },
    {
      "inputs": [
        {
          "internalType": "uint256",
          "name": "_price",
          "type": "uint256"
        }
      ],
      "name": "setRegistrationPrice",
      "outputs": [],
      "stateMutability": "nonpayable",
      "type": "function"
    },
    {
      "inputs": [
        {
          "internalType": "string",
          "name": "_domainName",
          "type": "string"
        },
        {
          "internalType": "uint256",
          "name": "_duration",
          "type": "uint256"
        },
        {
          "internalType": "uint256",
          "name": "_startPrice",
          "type": "uint256"
        }
      ],
      "name": "startAuction",
      "outputs": [],
      "stateMutability": "payable",
      "type": "function"
    },
    {
      "stateMutability": "payable",
      "type": "receive"
    }
  ],
  "bytecode": "0x6080604052670de0b6b3a764000060055534801561001c57600080fd5b50600780546001600160a01b031916331790556142108061003e6000396000f3fe6080604052600436106101c65760003560e01c8063867f5dd9116100f7578063c7796e1e11610095578063e4cb7c5d11610064578063e4cb7c5d14610572578063ecdd04da14610592578063f851a440146105b2578063f853e877146105d257600080fd5b8063c7796e1e146104cd578063ce9a5389146104ed578063ddc7b6a714610532578063e01174411461055257600080fd5b8063a214e395116100d1578063a214e39514610438578063b62a6d5f14610465578063b76b161814610478578063b7c763b5146104ad57600080fd5b8063867f5dd9146103e55780638f2839701461040557806390b0bc111461042557600080fd5b806326449235116101645780635f4833131161013e5780635f483313146103655780636642ccf514610378578063724033311461038b57806372a81497146103ad57600080fd5b806326449235146102ef5780632ac63f99146103225780635e5c06e21461033557600080fd5b80631bff58d8116101a05780631bff58d814610246578063216586581461027e57806325abd0ce146102a257806325e62b75146102cf57600080fd5b806301a01611146101d257806308e93d0a146101f45780631b9e16ad1461021f57600080fd5b366101cd57005b600080fd5b3480156101de57600080fd5b506101f26101ed366004613979565b6105f4565b005b34801561020057600080fd5b5061020961065d565b6040516102169190613ca3565b60405180910390f35b34801561022b57600080fd5b50610234610d65565b60405161021696959493929190613ef8565b34801561025257600080fd5b50610266610261366004613a0c565b61118a565b6040516001600160a01b039091168152602001610216565b34801561028a57600080fd5b5061029460055481565b604051908152602001610216565b3480156102ae57600080fd5b506102c26102bd366004613a0c565b6111b4565b6040516102169190613e1e565b3480156102db57600080fd5b506101f26102ea366004613a25565b611260565b3480156102fb57600080fd5b5061030f61030a366004613850565b6116dd565b6040516102169796959493929190613e90565b6101f26103303660046139be565b6118c9565b34801561034157600080fd5b50610355610350366004613827565b611bd9565b6040516102169493929190613f6c565b6101f2610373366004613979565b611d15565b6101f26103863660046138f1565b611fdc565b34801561039757600080fd5b506103a0612429565b6040516102169190613c90565b3480156103b957600080fd5b506102946103c8366004613850565b805160208183018101805160038252928201919093012091525481565b3480156103f157600080fd5b506101f26104003660046138f1565b612502565b34801561041157600080fd5b506101f2610420366004613827565b612609565b6101f26104333660046139be565b6126de565b34801561044457600080fd5b50610458610453366004613850565b6127c1565b6040516102169190613db6565b6101f2610473366004613979565b612861565b34801561048457600080fd5b50610498610493366004613850565b612a93565b60405161021699989796959493929190613e31565b3480156104b957600080fd5b506102c26104c8366004613a0c565b612b82565b3480156104d957600080fd5b506102c26104e8366004613850565b612c03565b3480156104f957600080fd5b5061050d610508366004613979565b612c9f565b604080516001600160a01b039094168452602084019290925290820152606001610216565b34801561053e57600080fd5b506101f261054d36600461388d565b612cfa565b34801561055e57600080fd5b506101f261056d366004613a0c565b612df1565b34801561057e57600080fd5b506101f261058d366004613850565b612e33565b34801561059e57600080fd5b5061030f6105ad366004613850565b612ed5565b3480156105be57600080fd5b50600754610266906001600160a01b031681565b3480156105de57600080fd5b506105e761318e565b6040516102169190613e0b565b6007546001600160a01b031633146106275760405162461bcd60e51b815260040161061e90613fe1565b60405180910390fd5b61063981670de0b6b3a76400006140b3565b6003836040516106499190613c45565b908152604051908190036020019020555050565b6007546060906001600160a01b0316331461068a5760405162461bcd60e51b815260040161061e90613fe1565b6000805b6008548110156106ff5760046000600883815481106106af576106af6141ae565b60009182526020808320909101546001600160a01b0316835282019290925260400190206006015460ff16156106ed57816106e981614167565b9250505b806106f781614167565b91505061068e565b5060008167ffffffffffffffff81111561071b5761071b6141c4565b60405190808252806020026020018201604052801561079657816020015b610783604051806101000160405280606081526020016060815260200160008152602001606081526020016060815260200160608152602001600015158152602001606081525090565b8152602001906001900390816107395790505b5090506000805b600854811015610d5c5760046000600883815481106107be576107be6141ae565b60009182526020808320909101546001600160a01b0316835282019290925260400190206006015460ff1615610d4a576004600060088381548110610805576108056141ae565b60009182526020808320909101546001600160a01b031683528201929092526040908101909120815161010081019092528054829082906108459061412c565b80601f01602080910402602001604051908101604052809291908181526020018280546108719061412c565b80156108be5780601f10610893576101008083540402835291602001916108be565b820191906000526020600020905b8154815290600101906020018083116108a157829003601f168201915b505050505081526020016001820180546108d79061412c565b80601f01602080910402602001604051908101604052809291908181526020018280546109039061412c565b80156109505780601f1061092557610100808354040283529160200191610950565b820191906000526020600020905b81548152906001019060200180831161093357829003601f168201915b505050505081526020016002820154815260200160038201805480602002602001604051908101604052809291908181526020016000905b82821015610a345783829060005260206000200180546109a79061412c565b80601f01602080910402602001604051908101604052809291908181526020018280546109d39061412c565b8015610a205780601f106109f557610100808354040283529160200191610a20565b820191906000526020600020905b815481529060010190602001808311610a0357829003601f168201915b505050505081526020019060010190610988565b50505050815260200160048201805480602002602001604051908101604052809291908181526020016000905b82821015610b0d578382906000526020600020018054610a809061412c565b80601f0160208091040260200160405190810160405280929190818152602001828054610aac9061412c565b8015610af95780601f10610ace57610100808354040283529160200191610af9565b820191906000526020600020905b815481529060010190602001808311610adc57829003601f168201915b505050505081526020019060010190610a61565b50505050815260200160058201805480602002602001604051908101604052809291908181526020016000905b82821015610be6578382906000526020600020018054610b599061412c565b80601f0160208091040260200160405190810160405280929190818152602001828054610b859061412c565b8015610bd25780601f10610ba757610100808354040283529160200191610bd2565b820191906000526020600020905b815481529060010190602001808311610bb557829003601f168201915b505050505081526020019060010190610b3a565b50505090825250600682015460ff161515602080830191909152600783018054604080518285028101850182528281529401939260009084015b82821015610d165783829060005260206000209060040201604051806080016040529081600082018054610c539061412c565b80601f0160208091040260200160405190810160405280929190818152602001828054610c7f9061412c565b8015610ccc5780601f10610ca157610100808354040283529160200191610ccc565b820191906000526020600020905b815481529060010190602001808311610caf57829003601f168201915b50505091835250506001828101546001600160a01b03166020808401919091526002840154604084015260039093015460ff16151560609092019190915291835292019101610c20565b5050505081525050838381518110610d3057610d306141ae565b60200260200101819052508180610d4690614167565b9250505b80610d5481614167565b91505061079d565b50909250505090565b33600090815260046020526040812060060154606091829182908190819060ff16610da25760405162461bcd60e51b815260040161061e90614064565b600060046000336001600160a01b03166001600160a01b03168152602001908152602001600020905080600001816001018260020154836003018460040185600501858054610df09061412c565b80601f0160208091040260200160405190810160405280929190818152602001828054610e1c9061412c565b8015610e695780601f10610e3e57610100808354040283529160200191610e69565b820191906000526020600020905b815481529060010190602001808311610e4c57829003601f168201915b50505050509550848054610e7c9061412c565b80601f0160208091040260200160405190810160405280929190818152602001828054610ea89061412c565b8015610ef55780601f10610eca57610100808354040283529160200191610ef5565b820191906000526020600020905b815481529060010190602001808311610ed857829003601f168201915b5050505050945082805480602002602001604051908101604052809291908181526020016000905b82821015610fc9578382906000526020600020018054610f3c9061412c565b80601f0160208091040260200160405190810160405280929190818152602001828054610f689061412c565b8015610fb55780601f10610f8a57610100808354040283529160200191610fb5565b820191906000526020600020905b815481529060010190602001808311610f9857829003601f168201915b505050505081526020019060010190610f1d565b50505050925081805480602002602001604051908101604052809291908181526020016000905b8282101561109c57838290600052602060002001805461100f9061412c565b80601f016020809104026020016040519081016040528092919081815260200182805461103b9061412c565b80156110885780601f1061105d57610100808354040283529160200191611088565b820191906000526020600020905b81548152906001019060200180831161106b57829003601f168201915b505050505081526020019060010190610ff0565b50505050915080805480602002602001604051908101604052809291908181526020016000905b8282101561116f5783829060005260206000200180546110e29061412c565b80601f016020809104026020016040519081016040528092919081815260200182805461110e9061412c565b801561115b5780601f106111305761010080835404028352916020019161115b565b820191906000526020600020905b81548152906001019060200180831161113e57829003601f168201915b5050505050815260200190600101906110c3565b50505050905096509650965096509650965050909192939495565b6008818154811061119a57600080fd5b6000918252602090912001546001600160a01b0316905081565b600681815481106111c457600080fd5b9060005260206000200160009150905080546111df9061412c565b80601f016020809104026020016040519081016040528092919081815260200182805461120b9061412c565b80156112585780601f1061122d57610100808354040283529160200191611258565b820191906000526020600020905b81548152906001019060200180831161123b57829003601f168201915b505050505081565b3360009081526004602052604090206007015482106112ba5760405162461bcd60e51b815260206004820152601660248201527524b73b30b634b2103932b8bab2b9ba1034b73232bc1760511b604482015260640161061e565b3360009081526004602052604081206007018054849081106112de576112de6141ae565b60009182526020909120600490910201600381015490915060ff16156113465760405162461bcd60e51b815260206004820152601860248201527f5265717565737420616c72656164792068616e646c65642e0000000000000000604482015260640161061e565b604051600190611357908390613c39565b90815260405190819003602001812061136f91613c39565b60405190819003812090611384908390613c39565b6040518091039020146113f25760405162461bcd60e51b815260206004820152603060248201527f5265717565737420646f6573206e6f74206d617463682074686520637572726560448201526f373a103237b6b0b4b71037bbb732b91760811b606482015260840161061e565b81156116d85760038101805460ff19166001908117909155818101546040516001600160a01b039091169190611429908490613c39565b90815260405190819003602001902060010180546001600160a01b03929092166001600160a01b0319909216919091179055600281015433906108fc9061147890670de0b6b3a76400006140b3565b6040518115909202916000818181858888f193505050501580156114a0573d6000803e3d6000fd5b506001808201546001600160a01b0316600090815260046020908152604082206003018054938401815582529020825491019082906114de9061412c565b6114e9929190613649565b50336000908152600460205260409020600701805461150a906001906140d2565b8154811061151a5761151a6141ae565b906000526020600020906004020160046000336001600160a01b03166001600160a01b031681526020019081526020016000206007018481548110611561576115616141ae565b906000526020600020906004020160008201816000019080546115839061412c565b61158e929190613649565b5060018281015490820180546001600160a01b0319166001600160a01b03909216919091179055600280830154908201556003918201549101805460ff909216151560ff199092169190911790553360009081526004602052604090206007018054806115fd576115fd614198565b6000828152602081206000199092019160048302019061161d82826136d4565b506001810180546001600160a01b031916905560006002820155600301805460ff19169055905580546116d89082906116559061412c565b80601f01602080910402602001604051908101604052809291908181526020018280546116819061412c565b80156116ce5780601f106116a3576101008083540402835291602001916116ce565b820191906000526020600020905b8154815290600101906020018083116116b157829003601f168201915b50505050506132b6565b505050565b80516020818301810180516001825292820191909301209152805481906117039061412c565b80601f016020809104026020016040519081016040528092919081815260200182805461172f9061412c565b801561177c5780601f106117515761010080835404028352916020019161177c565b820191906000526020600020905b81548152906001019060200180831161175f57829003601f168201915b505050600184015460028501805494956001600160a01b039092169491935091506117a69061412c565b80601f01602080910402602001604051908101604052809291908181526020018280546117d29061412c565b801561181f5780601f106117f45761010080835404028352916020019161181f565b820191906000526020600020905b81548152906001019060200180831161180257829003601f168201915b5050505050908060030180546118349061412c565b80601f01602080910402602001604051908101604052809291908181526020018280546118609061412c565b80156118ad5780601f10611882576101008083540402835291602001916118ad565b820191906000526020600020905b81548152906001019060200180831161189057829003601f168201915b5050505050908060040154908060050154908060060154905087565b600060026118d685612c03565b6040516118e39190613c45565b90815260200160405180910390209050813410156119135760405162461bcd60e51b815260040161061e90613faa565b3360009081526004602052604090206006015460ff166119455760405162461bcd60e51b815260040161061e90614064565b60018101546001600160a01b031661198157600781015460ff161561197c5760405162461bcd60e51b815260040161061e90614023565b6119a5565b600781015460ff166119a55760405162461bcd60e51b815260040161061e90614023565b60006001856040516119b79190613c45565b9081526040805160209281900383019020336000908152600490935291209091506005016119e486612c03565b815460018101835560009283526020928390208251611a099491909201920190613711565b5060018101546001600160a01b031615611a855760018101546001600160a01b03163314611a855760405162461bcd60e51b8152602060048201526024808201527f4f6e6c7920746865206f776e65722063616e20737461727420616e206175637460448201526334b7b71760e11b606482015260840161061e565b604051806101200160405280868152602001336001600160a01b03168152602001336001600160a01b031681526020014281526020018542611ac7919061409b565b8152602001611ade85670de0b6b3a76400006140b3565b8152602001611af585670de0b6b3a76400006140b3565b81526000602082018190526040909101526002611b1187612c03565b604051611b1e9190613c45565b90815260200160405180910390206000820151816000019080519060200190611b48929190613711565b5060208201516001820180546001600160a01b039283166001600160a01b0319918216179091556040840151600284018054919093169116179055606082015160038201556080820151600482015560a0820151600582015560c0820151600682015560e082015160078201805491151560ff19909216919091179055610100909101516008909101555050505050565b600460205260009081526040902080548190611bf49061412c565b80601f0160208091040260200160405190810160405280929190818152602001828054611c209061412c565b8015611c6d5780601f10611c4257610100808354040283529160200191611c6d565b820191906000526020600020905b815481529060010190602001808311611c5057829003601f168201915b505050505090806001018054611c829061412c565b80601f0160208091040260200160405190810160405280929190818152602001828054611cae9061412c565b8015611cfb5780601f10611cd057610100808354040283529160200191611cfb565b820191906000526020600020905b815481529060010190602001808311611cde57829003601f168201915b50505050600283015460069093015491929160ff16905084565b60006002611d2284612c03565b604051611d2f9190613c45565b908152602001604051809103902090508060040154421115611d8c5760405162461bcd60e51b815260206004820152601660248201527520bab1ba34b7b71030b63932b0b23c9032b73232b21760511b604482015260640161061e565b6006810154611da383670de0b6b3a76400006140b3565b11611df05760405162461bcd60e51b815260206004820152601e60248201527f546865726520616c7265616479206973206120686967686572206269642e0000604482015260640161061e565b80600601543411611e435760405162461bcd60e51b815260206004820152601e60248201527f546865726520616c7265616479206973206120686967686572206269642e0000604482015260640161061e565b81341015611e635760405162461bcd60e51b815260040161061e90613faa565b3360009081526004602052604090206006015460ff16611e955760405162461bcd60e51b815260040161061e90614064565b600281015460068201546040516001600160a01b039092169181156108fc0291906000818181858888f19350505050158015611ed5573d6000803e3d6000fd5b50604080516060810182523381526020810184905242818301529051600090611eff908690613c45565b90815260408051918290036020908101909220805460018181018355600092835291849020855160039092020180546001600160a01b039092166001600160a01b0319928316178155938501519184019190915590830151600292830155908301805490911633179055611f7b83670de0b6b3a76400006140b3565b60068301556008820154611f9090600161409b565b6008830155336000908152600460205260409020600501611fb085612c03565b815460018101835560009283526020928390208251611fd59491909201920190613711565b5050505050565b60006002611fe985612c03565b604051611ff69190613c45565b9081526020016040518091039020905080600401544210156120535760405162461bcd60e51b815260206004820152601660248201527520bab1ba34b7b7103737ba103cb2ba1032b73232b21760511b604482015260640161061e565b60028101546001600160a01b031633146120ba5760405162461bcd60e51b815260206004820152602260248201527f596f7520617265206e6f74207468652061756374696f6e20696e69746961746f604482015261391760f11b606482015260840161061e565b60008351116121015760405162461bcd60e51b815260206004820152601360248201527224a81031b0b73737ba1031329032b6b83a3c9760691b604482015260640161061e565b6000806001600160a01b031660018660405161211d9190613c45565b908152604051908190036020019020600101546001600160a01b0316141561218457600680546001810182556000919091528551612182917ff652222313e28459528d920b65115c16c04f3efc82aaedc97be59f3f377c0d3f01906020880190613711565b505b600182015460068301546040516001600160a01b039092169181156108fc0291906000818181858888f193505050501580156121c4573d6000803e3d6000fd5b5060078201805460ff19166001908117909155604051600091906121e9908890613c45565b9081526020016040518091039020600501541115612236576001856040516122119190613c45565b908152602001604051809103902060050154600161222f919061409b565b905061223a565b5060015b6040518060e001604052808360000180546122549061412c565b80601f01602080910402602001604051908101604052809291908181526020018280546122809061412c565b80156122cd5780601f106122a2576101008083540402835291602001916122cd565b820191906000526020600020905b8154815290600101906020018083116122b057829003601f168201915b505050918352505060028401546001600160a01b031660208201526040808201879052606082018690526006850154608083015260a082018490525160c09091019060019061231d908990613c45565b9081526020016040518091039020600601548152506001866040516123429190613c45565b9081526020016040518091039020600082015181600001908051906020019061236c929190613711565b506020828101516001830180546001600160a01b0319166001600160a01b03909216919091179055604083015180516123ab9260028501920190613711565b50606082015180516123c7916003840191602090910190613711565b50608082015160048083019190915560a0830151600583015560c090920151600690910155336000908152602091825260408120600301805460018101825590825290829020875161242193919092019190880190613711565b505050505050565b60606006805480602002602001604051908101604052809291908181526020016000905b828210156124f957838290600052602060002001805461246c9061412c565b80601f01602080910402602001604051908101604052809291908181526020018280546124989061412c565b80156124e55780601f106124ba576101008083540402835291602001916124e5565b820191906000526020600020905b8154815290600101906020018083116124c857829003601f168201915b50505050508152602001906001019061244d565b50505050905090565b336001600160a01b031660018460405161251c9190613c45565b908152604051908190036020019020600101546001600160a01b0316146125985760405162461bcd60e51b815260206004820152602a60248201527f4f6e6c7920746865206f776e65722063616e207365742074686520646f6d6169604482015269371031b7b73a32b73a1760b11b606482015260840161061e565b816001846040516125a99190613c45565b908152602001604051809103902060030190805190602001906125cd929190613711565b50806001846040516125df9190613c45565b90815260200160405180910390206002019080519060200190612603929190613711565b50505050565b6007546001600160a01b031633146126335760405162461bcd60e51b815260040161061e90613fe1565b6001600160a01b0381166126825760405162461bcd60e51b815260206004820152601660248201527524b73b30b634b21030b236b4b71030b2323932b9b99760511b604482015260640161061e565b6007546040516001600160a01b038084169216907f7e644d79422f17c01e4894b5f4f588d331ebfa28653d42ae832dc59e38c9798f90600090a3600780546001600160a01b0319166001600160a01b0392909216919091179055565b6005543410156127005760405162461bcd60e51b815260040161061e90613faa565b3360009081526004602052604090206006015460ff166127325760405162461bcd60e51b815260040161061e90614064565b60006001600160a01b031660018460405161274d9190613c45565b908152604051908190036020019020600101546001600160a01b0316146127b65760405162461bcd60e51b815260206004820152601a60248201527f446f6d61696e20616c726561647920726567697374657265642e000000000000604482015260640161061e565b6116d88383836118c9565b60606000826040516127d39190613c45565b9081526020016040518091039020805480602002602001604051908101604052809291908181526020016000905b82821015612856576000848152602090819020604080516060810182526003860290920180546001600160a01b0316835260018082015484860152600290910154918301919091529083529092019101612801565b505050509050919050565b60006001600160a01b031660018360405161287c9190613c45565b908152604051908190036020019020600101546001600160a01b031614156128df5760405162461bcd60e51b81526020600482015260166024820152752237b6b0b4b7103237b2b9903737ba1032bc34b9ba1760511b604482015260640161061e565b336001600160a01b03166001836040516128f99190613c45565b908152604051908190036020019020600101546001600160a01b0316141561297e5760405162461bcd60e51b815260206004820152603260248201527f4f776e65722063616e6e6f742072657175657374207472616e73666572206f66604482015271103a3432b4b91037bbb7103237b6b0b4b71760711b606482015260840161061e565b61299081670de0b6b3a76400006140b3565b3410156129af5760405162461bcd60e51b815260040161061e90613faa565b60408051608081018252838152336020820152808201839052600060608201819052915190916004916001906129e6908790613c45565b90815260408051602092819003830190206001908101546001600160a01b031684528383019490945291909101600090812060070180549384018155815281902083518051859460040290920192612a4392849290910190613711565b5060208201516001820180546001600160a01b0319166001600160a01b03909216919091179055604082015160028201556060909101516003909101805460ff1916911515919091179055505050565b8051602081830181018051600282529282019190930120915280548190612ab99061412c565b80601f0160208091040260200160405190810160405280929190818152602001828054612ae59061412c565b8015612b325780601f10612b0757610100808354040283529160200191612b32565b820191906000526020600020905b815481529060010190602001808311612b1557829003601f168201915b50505060018401546002850154600386015460048701546005880154600689015460078a01546008909a015498996001600160a01b03968716999590961697509295509093909260ff9091169089565b606081612ba65750506040805180820190915260018152600360fc1b602082015290565b6040805180820182526001808252600360fc1b60208084018290528451808601909552918452908301529060005b84811015612bfa5780612be681614167565b915050612bf383836134f6565b9250612bd4565b50909392505050565b60606000600183604051612c179190613c45565b9081526040519081900360200190206005810154909150839015612c6a5780612c438360050154612b82565b604051602001612c54929190613c61565b6040516020818303038152906040529050612c98565b80612c756000612b82565b604051602001612c86929190613c61565b60405160208183030381529060405290505b9392505050565b81516020818401810180516000825292820191850191909120919052805482908110612cca57600080fd5b60009182526020909120600390910201805460018201546002909201546001600160a01b03909116935090915083565b3360009081526004602052604090206006015460ff1615612d5d5760405162461bcd60e51b815260206004820152601b60248201527f4163636f756e7420616c726561647920726567697374657265642e0000000000604482015260640161061e565b33600090815260046020908152604090912083519091612d81918391860190613711565b508151612d979060018301906020850190613711565b50426002820155600601805460ff191660019081179091556008805491820181556000527ff3f7a9fe364faab93b216da50a3214154f22a0a2b415b23a84c8169e8b636ee30180546001600160a01b031916331790555050565b6007546001600160a01b03163314612e1b5760405162461bcd60e51b815260040161061e90613fe1565b612e2d81670de0b6b3a76400006140b3565b60055550565b3360009081526004602052604090206006015460ff16612e655760405162461bcd60e51b815260040161061e90614064565b33600090815260046020818152604083209091018054600181018255908352918190208351612e9b939190910191840190613711565b5060018082604051612ead9190613c45565b90815260200160405180910390206006016000828254612ecd919061409b565b909155505050565b606060006060806000806000600188604051612ef19190613c45565b90815260405190819003602001812090600190612f0f908b90613c45565b9081526040519081900360200181206001908101546001600160a01b031691612f39908c90613c45565b908152602001604051809103902060020160018b604051612f5a9190613c45565b908152602001604051809103902060030160018c604051612f7b9190613c45565b90815260200160405180910390206004015460018d604051612f9d9190613c45565b90815260200160405180910390206005015460018e604051612fbf9190613c45565b908152602001604051809103902060060154868054612fdd9061412c565b80601f01602080910402602001604051908101604052809291908181526020018280546130099061412c565b80156130565780601f1061302b57610100808354040283529160200191613056565b820191906000526020600020905b81548152906001019060200180831161303957829003601f168201915b505050505096508480546130699061412c565b80601f01602080910402602001604051908101604052809291908181526020018280546130959061412c565b80156130e25780601f106130b7576101008083540402835291602001916130e2565b820191906000526020600020905b8154815290600101906020018083116130c557829003601f168201915b505050505094508380546130f59061412c565b80601f01602080910402602001604051908101604052809291908181526020018280546131219061412c565b801561316e5780601f106131435761010080835404028352916020019161316e565b820191906000526020600020905b81548152906001019060200180831161315157829003601f168201915b505050505093509650965096509650965096509650919395979092949650565b336000908152600460209081526040808320600701805482518185028101850190935280835260609492939192909184015b828210156124f957838290600052602060002090600402016040518060800160405290816000820180546131f39061412c565b80601f016020809104026020016040519081016040528092919081815260200182805461321f9061412c565b801561326c5780601f106132415761010080835404028352916020019161326c565b820191906000526020600020905b81548152906001019060200180831161324f57829003601f168201915b50505091835250506001828101546001600160a01b03166020808401919091526002840154604084015260039093015460ff161515606090920191909152918352920191016131c0565b60006001826040516132c89190613c45565b9081526040805160209281900383019020600101546001600160a01b03166000818152600490935290822060070154909250905b8181101561260357838051906020012060046000856001600160a01b03166001600160a01b031681526020019081526020016000206007018281548110613345576133456141ae565b90600052602060002090600402016000016040516133639190613c39565b604051809103902014156134e4576001600160a01b03831660009081526004602052604090206007016133976001846140d2565b815481106133a7576133a76141ae565b906000526020600020906004020160046000856001600160a01b03166001600160a01b0316815260200190815260200160002060070182815481106133ee576133ee6141ae565b906000526020600020906004020160008201816000019080546134109061412c565b61341b929190613649565b5060018281015490820180546001600160a01b0319166001600160a01b039283161790556002808401549083015560039283015492909101805460ff909316151560ff19909316929092179091558316600090815260046020526040902060070180548061348b5761348b614198565b600082815260208120600019909201916004830201906134ab82826136d4565b506001810180546001600160a01b031916905560006002820155600301805460ff191690559055816134dc81614115565b9250506132fc565b806134ee81614167565b9150506132fc565b805182516060918491849160009161350e919061409b565b67ffffffffffffffff811115613526576135266141c4565b6040519080825280601f01601f191660200182016040528015613550576020820181803683370190505b509050806000805b85518110156135c857858181518110613573576135736141ae565b01602001516001600160f81b031916838361358d81614167565b94508151811061359f5761359f6141ae565b60200101906001600160f81b031916908160001a905350806135c081614167565b915050613558565b5060005b845181101561363c578481815181106135e7576135e76141ae565b01602001516001600160f81b031916838361360181614167565b945081518110613613576136136141ae565b60200101906001600160f81b031916908160001a9053508061363481614167565b9150506135cc565b5090979650505050505050565b8280546136559061412c565b90600052602060002090601f01602090048101928261367757600085556136c4565b82601f1061368857805485556136c4565b828001600101855582156136c457600052602060002091601f016020900482015b828111156136c45782548255916001019190600101906136a9565b506136d0929150613785565b5090565b5080546136e09061412c565b6000825580601f106136f0575050565b601f01602090049060005260206000209081019061370e9190613785565b50565b82805461371d9061412c565b90600052602060002090601f01602090048101928261373f57600085556136c4565b82601f1061375857805160ff19168380011785556136c4565b828001600101855582156136c4579182015b828111156136c457825182559160200191906001019061376a565b5b808211156136d05760008155600101613786565b600082601f8301126137ab57600080fd5b813567ffffffffffffffff808211156137c6576137c66141c4565b604051601f8301601f19908116603f011681019082821181831017156137ee576137ee6141c4565b8160405283815286602085880101111561380757600080fd5b836020870160208301376000602085830101528094505050505092915050565b60006020828403121561383957600080fd5b81356001600160a01b0381168114612c9857600080fd5b60006020828403121561386257600080fd5b813567ffffffffffffffff81111561387957600080fd5b6138858482850161379a565b949350505050565b600080604083850312156138a057600080fd5b823567ffffffffffffffff808211156138b857600080fd5b6138c48683870161379a565b935060208501359150808211156138da57600080fd5b506138e78582860161379a565b9150509250929050565b60008060006060848603121561390657600080fd5b833567ffffffffffffffff8082111561391e57600080fd5b61392a8783880161379a565b9450602086013591508082111561394057600080fd5b61394c8783880161379a565b9350604086013591508082111561396257600080fd5b5061396f8682870161379a565b9150509250925092565b6000806040838503121561398c57600080fd5b823567ffffffffffffffff8111156139a357600080fd5b6139af8582860161379a565b95602094909401359450505050565b6000806000606084860312156139d357600080fd5b833567ffffffffffffffff8111156139ea57600080fd5b6139f68682870161379a565b9660208601359650604090950135949350505050565b600060208284031215613a1e57600080fd5b5035919050565b60008060408385031215613a3857600080fd5b8235915060208301358015158114613a4f57600080fd5b809150509250929050565b600081518084526020808501808196508360051b8101915082860160005b85811015613aa2578284038952613a90848351613c0d565b98850198935090840190600101613a78565b5091979650505050505050565b600081518084526020808501808196508360051b8101915082860160005b85811015613aa2578284038952613ae5848351613c0d565b98850198935090840190600101613acd565b600081518084526020808501808196508360051b8101915082860160005b85811015613aa2578284038952815160808151818752613b3782880182613c0d565b838901516001600160a01b0316888a0152604080850151908901526060938401511515939097019290925250509784019790840190600101613b15565b8054600090600181811c9080831680613b8e57607f831692505b6020808410821415613bb057634e487b7160e01b600052602260045260246000fd5b818015613bc45760018114613bd557613c01565b60ff19861689528489019650613c01565b876000528160002060005b86811015613bf95781548b820152908501908301613be0565b505084890196505b50505050505092915050565b60008151808452613c258160208601602086016140e9565b601f01601f19169290920160200192915050565b6000612c988284613b74565b60008251613c578184602087016140e9565b9190910192915050565b60008351613c738184602088016140e9565b835190830190613c878183602088016140e9565b01949350505050565b602081526000612c986020830184613aaf565b60006020808301818452808551808352604092508286019150828160051b87010184880160005b83811015613da857603f1989840301855281516101008151818652613cf182870182613c0d565b915050888201518582038a870152613d098282613c0d565b915050878201518886015260608083015186830382880152613d2b8382613a5a565b9250505060808083015186830382880152613d468382613a5a565b9250505060a08083015186830382880152613d618382613a5a565b9250505060c080830151613d788288018215159052565b505060e08083015192508582038187015250613d948183613af7565b968901969450505090860190600101613cca565b509098975050505050505050565b602080825282518282018190526000919060409081850190868401855b82811015613aa257815180516001600160a01b0316855286810151878601528501518585015260609093019290850190600101613dd3565b602081526000612c986020830184613af7565b602081526000612c986020830184613c0d565b6000610120808352613e458184018d613c0d565b6001600160a01b039b8c16602085015299909a166040830152506060810196909652608086019490945260a085019290925260c0840152151560e08301526101009091015292915050565b60e081526000613ea360e083018a613c0d565b6001600160a01b03891660208401528281036040840152613ec48189613c0d565b90508281036060840152613ed88188613c0d565b6080840196909652505060a081019290925260c090910152949350505050565b60c081526000613f0b60c0830189613c0d565b8281036020840152613f1d8189613c0d565b90508660408401528281036060840152613f378187613aaf565b90508281036080840152613f4b8186613aaf565b905082810360a0840152613f5f8185613aaf565b9998505050505050505050565b608081526000613f7f6080830187613c0d565b8281036020840152613f918187613c0d565b6040840195909552505090151560609091015292915050565b6020808252601a908201527f4e6f7420656e6f7567682045746865722070726f76696465642e000000000000604082015260600190565b60208082526022908201527f4f6e6c792061646d696e2063616e2063616c6c20746869732066756e6374696f604082015261371760f11b606082015260800190565b60208082526021908201527f5468697320646f6d61696e206e616d6520697320756e6465722061756374696f6040820152603760f91b606082015260800190565b60208082526017908201527f4163636f756e74206e6f7420726567697374657265642e000000000000000000604082015260600190565b600082198211156140ae576140ae614182565b500190565b60008160001904831182151516156140cd576140cd614182565b500290565b6000828210156140e4576140e4614182565b500390565b60005b838110156141045781810151838201526020016140ec565b838111156126035750506000910152565b60008161412457614124614182565b506000190190565b600181811c9082168061414057607f821691505b6020821081141561416157634e487b7160e01b600052602260045260246000fd5b50919050565b600060001982141561417b5761417b614182565b5060010190565b634e487b7160e01b600052601160045260246000fd5b634e487b7160e01b600052603160045260246000fd5b634e487b7160e01b600052603260045260246000fd5b634e487b7160e01b600052604160045260246000fdfea2646970667358221220743b799725c518ce7c963aee219b0ccb3da51aff3e4a349237a073c9a5d688a764736f6c63430008060033",
  "linkReferences": {},
  "deployedLinkReferences": {}
}