{
  "_format": "hh-sol-artifact-1",
  "contractName": "LoginContract",
  "sourceName": "contracts/LoginContract.sol",
  "abi": [
    {
      "anonymous": false,
      "inputs": [
        {
          "indexed": false,
          "internalType": "address",
          "name": "userAddress",
          "type": "address"
        }
      ],
      "name": "UserLoggedIn",
      "type": "event"
    },
    {
      "inputs": [
        {
          "internalType": "address",
          "name": "_userAddress",
          "type": "address"
        },
        {
          "internalType": "bytes",
          "name": "_signature",
          "type": "bytes"
        }
      ],
      "name": "loginUser",
      "outputs": [],
      "stateMutability": "nonpayable",
      "type": "function"
    },
    {
      "inputs": [
        {
          "internalType": "address",
          "name": "",
          "type": "address"
        }
      ],
      "name": "userSignatures",
      "outputs": [
        {
          "internalType": "bytes",
          "name": "",
          "type": "bytes"
        }
      ],
      "stateMutability": "view",
      "type": "function"
    },
    {
      "inputs": [
        {
          "internalType": "address",
          "name": "_userAddress",
          "type": "address"
        },
        {
          "internalType": "bytes",
          "name": "_signature",
          "type": "bytes"
        }
      ],
      "name": "verifyUserSignature",
      "outputs": [
        {
          "internalType": "bool",
          "name": "",
          "type": "bool"
        }
      ],
      "stateMutability": "view",
      "type": "function"
    }
  ],
  "bytecode": "0x608060405234801561001057600080fd5b50610ab9806100206000396000f3fe608060405234801561001057600080fd5b50600436106100415760003560e01c806388a280301461004657806396b3ce5414610062578063b8618fd214610092575b600080fd5b610060600480360381019061005b91906104dd565b6100c2565b005b61007c600480360381019061007791906104b0565b610282565b604051610089919061077a565b60405180910390f35b6100ac60048036038101906100a791906104dd565b610322565b6040516100b9919061071a565b60405180910390f35b60008060006020840151925060408401519150606084015160001a905060006040516020016100f0906106ea565b60405160208183030381529060405280519060200120905060008160405160200161011b91906106c4565b6040516020818303038152906040528051906020012090508673ffffffffffffffffffffffffffffffffffffffff166001828588886040516000815260200160405260405161016d9493929190610735565b6020604051602081039080840390855afa15801561018f573d6000803e3d6000fd5b5050506020604051035173ffffffffffffffffffffffffffffffffffffffff16146101ef576040517f08c379a00000000000000000000000000000000000000000000000000000000081526004016101e69061079c565b60405180910390fd5b856000808973ffffffffffffffffffffffffffffffffffffffff1673ffffffffffffffffffffffffffffffffffffffff1681526020019081526020016000209080519060200190610241929190610388565b507f8d15fde878cff665868ed7579eb5081db6508d4249df61dcdd7699a5301d98748760405161027191906106ff565b60405180910390a150505050505050565b600060205280600052604060002060009150905080546102a190610901565b80601f01602080910402602001604051908101604052809291908181526020018280546102cd90610901565b801561031a5780601f106102ef5761010080835404028352916020019161031a565b820191906000526020600020905b8154815290600101906020018083116102fd57829003601f168201915b505050505081565b600081805190602001206000808573ffffffffffffffffffffffffffffffffffffffff1673ffffffffffffffffffffffffffffffffffffffff16815260200190815260200160002060405161037791906106ad565b604051809103902014905092915050565b82805461039490610901565b90600052602060002090601f0160209004810192826103b657600085556103fd565b82601f106103cf57805160ff19168380011785556103fd565b828001600101855582156103fd579182015b828111156103fc5782518255916020019190600101906103e1565b5b50905061040a919061040e565b5090565b5b8082111561042757600081600090555060010161040f565b5090565b600061043e610439846107e1565b6107bc565b90508281526020810184848401111561045a576104596109d1565b5b6104658482856108bf565b509392505050565b60008135905061047c81610a6c565b92915050565b600082601f830112610497576104966109cc565b5b81356104a784826020860161042b565b91505092915050565b6000602082840312156104c6576104c56109db565b5b60006104d48482850161046d565b91505092915050565b600080604083850312156104f4576104f36109db565b5b60006105028582860161046d565b925050602083013567ffffffffffffffff811115610523576105226109d6565b5b61052f85828601610482565b9150509250929050565b6105428161086a565b82525050565b6105518161087c565b82525050565b61056081610888565b82525050565b61057761057282610888565b610964565b82525050565b600061058882610827565b6105928185610832565b93506105a28185602086016108ce565b6105ab816109e0565b840191505092915050565b600081546105c381610901565b6105cd8186610843565b945060018216600081146105e857600181146105f95761062c565b60ff1983168652818601935061062c565b61060285610812565b60005b8381101561062457815481890152600182019150602081019050610605565b838801955050505b50505092915050565b6000610642601c8361085f565b915061064d826109f1565b601c82019050919050565b600061066560118361084e565b915061067082610a1a565b602082019050919050565b600061068860078361085f565b915061069382610a43565b600782019050919050565b6106a7816108b2565b82525050565b60006106b982846105b6565b915081905092915050565b60006106cf82610635565b91506106db8284610566565b60208201915081905092915050565b60006106f58261067b565b9150819050919050565b60006020820190506107146000830184610539565b92915050565b600060208201905061072f6000830184610548565b92915050565b600060808201905061074a6000830187610557565b610757602083018661069e565b6107646040830185610557565b6107716060830184610557565b95945050505050565b60006020820190508181036000830152610794818461057d565b905092915050565b600060208201905081810360008301526107b581610658565b9050919050565b60006107c66107d7565b90506107d28282610933565b919050565b6000604051905090565b600067ffffffffffffffff8211156107fc576107fb61099d565b5b610805826109e0565b9050602081019050919050565b60008190508160005260206000209050919050565b600081519050919050565b600082825260208201905092915050565b600081905092915050565b600082825260208201905092915050565b600081905092915050565b600061087582610892565b9050919050565b60008115159050919050565b6000819050919050565b600073ffffffffffffffffffffffffffffffffffffffff82169050919050565b600060ff82169050919050565b82818337600083830152505050565b60005b838110156108ec5780820151818401526020810190506108d1565b838111156108fb576000848401525b50505050565b6000600282049050600182168061091957607f821691505b6020821081141561092d5761092c61096e565b5b50919050565b61093c826109e0565b810181811067ffffffffffffffff8211171561095b5761095a61099d565b5b80604052505050565b6000819050919050565b7f4e487b7100000000000000000000000000000000000000000000000000000000600052602260045260246000fd5b7f4e487b7100000000000000000000000000000000000000000000000000000000600052604160045260246000fd5b600080fd5b600080fd5b600080fd5b600080fd5b6000601f19601f8301169050919050565b7f19457468657265756d205369676e6564204d6573736167653a0a333200000000600082015250565b7f496e76616c6964207369676e6174757265000000000000000000000000000000600082015250565b7f6d65737361676500000000000000000000000000000000000000000000000000600082015250565b610a758161086a565b8114610a8057600080fd5b5056fea2646970667358221220354c8b2590af6dba9923143128d3566c5f4f6efb7e0787573b7857e731d46cac64736f6c63430008060033",
  "linkReferences": {},
  "deployedLinkReferences": {}
}